{
  "dash": {
    "utxos": [
      {
        "txid": "2d26ef62b071124f9c9c887e949be639e88422ca9a49ea8c50a004d7af9e2f27",
        "vout": 0,
        "address": "7TRutGWsKXKPb4CBoz6MB5S6pcVFigeCUL",
        "account": "",
        "redeemScript": "522102f0e3cd8d190b195d0a2214816d0415d88bbbb14b94f925b723c448027889b2592103b796454b6ea7b7daa923281ea69f5d6cf3b214443c4c064a3b39663371dbb3de52ae",
        "scriptPubKey": "a9140b352be6d66c7dc4762b5694316b585eb3a6536c87",
        "amount": 0.01880475,
        "confirmations": 11,
        "spendable": false,
        "solvable": true,
        "safe": true,
        "ps_rounds": -2,
        "public_keys": [
          "03b796454b6ea7b7daa923281ea69f5d6cf3b214443c4c064a3b39663371dbb3de",
          "02f0e3cd8d190b195d0a2214816d0415d88bbbb14b94f925b723c448027889b259"
        ]
      }
    ],
    "public_key": "03b796454b6ea7b7daa923281ea69f5d6cf3b214443c4c064a3b39663371dbb3de",
    "hex": "0200000001272f9eafd704a0508cea499aca2284e839e69b947e889c9c4f1271b062ef262d00000000910047304402203a5b69026ba230a804b01e439e08235afac31a3108b2c1c0e31b714603b3524102205bd941e75694194e39c2c62eda008b7913975d4cc6753d68e1c39567138daa710147522102f0e3cd8d190b195d0a2214816d0415d88bbbb14b94f925b723c448027889b2592103b796454b6ea7b7daa923281ea69f5d6cf3b214443c4c064a3b39663371dbb3de52aeffffffff01f1ae1c000000000017a9140b352be6d66c7dc4762b5694316b585eb3a6536c8700000000",
    "key": "U2FsdGVkX19CvCLlm2RibId2ewK3TBT8fnrBFQ51Vt0L1YRjVzt03uc3hJWMs+1hfGVl7VMdZK53uEm9fYbQ/La3xfeTFkM3WjNmFD5KLETV6S0amcZpcit8k3pMXv17",
    "salt": "1965208c6c32042b1a0e297d3479a11f"
  },
  "btc": {
    "utxos": [
      {
        "txid": "c25ce048981ed8220b533ce35470526d3c3896b488d8b2b635df18c449a161fe",
        "vout": 0,
        "address": "31vq2dpuz1MBeLhtjs86a3a9YCbjxi9ao3",
        "account": "",
        "redeemScript": "002045d4bdec369fe377b5e501e45ad4f5f2fb7cd42eb10c297aaf9fd01f22fa6d16",
        "scriptPubKey": "a914029cba9303eb1475342194c82dde7fd323e5f31887",
        "amount": 0.001,
        "confirmations": 1041,
        "spendable": false,
        "solvable": true,
        "safe": true,
        "private_key": "Kys8X9QLid2Xq5GKZ7oYyoFz3Jk3hDE3GR9K5AwpUPS2ptCtiBch",
        "public_keys": [
          "0348f2863b49419fbec7bba412f363cb31e01b55cc97c3b6b93b3f14e897f37a68",
          "03e812d8f8c534300e737b546da69263530496fd9e8409b209179b38c2547b6e4e"
        ]
      },
      {
        "txid": "b089c5060df2a509980d4903ff3093ddcb38b0e099cd4b775cd2777ff7251289",
        "vout": 0,
        "address": "3FqgJefEyifvMbaVgbm3Gk6py1QkxexFEM",
        "account": "",
        "redeemScript": "002040b8178fa72cbf7e3f65ede799d06cf2507b7298adc2031e93d49f6d00e8caf3",
        "scriptPubKey": "a9149b3520ac8c63213797d609267b5a51049d25545287",
        "amount": 0.0001,
        "confirmations": 382,
        "spendable": false,
        "solvable": true,
        "safe": true,
        "private_key": "L4TMGYUZoEguNVK22urawUSugVnuMHtA7uPb8nihrQcktSmJfStT",
        "public_keys": [
          "0348f2863b49419fbec7bba412f363cb31e01b55cc97c3b6b93b3f14e897f37a68",
          "02041632b10c7cf1ed3759a1379de01bd2ca7d95e27085ce239937e24cb77e1659"
        ]
      },
      {
        "txid": "b089c5060df2a509980d4903ff3093ddcb38b0e099cd4b775cd2777ff7251289",
        "vout": 1,
        "address": "3PDBrgPZQ9jTR2DbC6Sxxmctsf5DvssBbR",
        "account": "",
        "redeemScript": "00205c63579b28f39de33e1149c344115336f05ec513e98f8a5f9c6108a60abcee51",
        "scriptPubKey": "a914ec0f698b62ac727b0d8db88cceef71e4b650a08c87",
        "amount": 0.00048236,
        "confirmations": 382,
        "spendable": false,
        "solvable": true,
        "safe": true,
        "private_key": "KxdAGEQKjFPTVTstWeH56A7LryrwWtJ5hYgNFcuTLBwCSQcb7z37",
        "public_keys": [
          "0348f2863b49419fbec7bba412f363cb31e01b55cc97c3b6b93b3f14e897f37a68",
          "020f7f5b79ea6269c2dc4d53339c28989067d1cbf043fea976b93d0e78a1c56ea7"
        ]
      }
    ],
    "public_key": "0348f2863b49419fbec7bba412f363cb31e01b55cc97c3b6b93b3f14e897f37a68",
    "hex": "01000000000103fe61a149c418df35b6b2d888b496383c6d527054e33c530b22d81e9848e05cc2000000002322002045d4bdec369fe377b5e501e45ad4f5f2fb7cd42eb10c297aaf9fd01f22fa6d16ffffffff891225f77f77d25c774bcd99e0b038cbdd9330ff03490d9809a5f20d06c589b0000000002322002040b8178fa72cbf7e3f65ede799d06cf2507b7298adc2031e93d49f6d00e8caf3ffffffff891225f77f77d25c774bcd99e0b038cbdd9330ff03490d9809a5f20d06c589b001000000232200205c63579b28f39de33e1149c344115336f05ec513e98f8a5f9c6108a60abcee51ffffffff01d05c02000000000017a9149b3520ac8c63213797d609267b5a51049d255452870300483045022100d51fcf75cf32b4404ba05b2a0194505a448a4adb13da626dfe221354a204e06202204f6cc9066b98fd5d9ad850bbd47059136964c11a2f906eb527c7949dedaad002014752210348f2863b49419fbec7bba412f363cb31e01b55cc97c3b6b93b3f14e897f37a682103e812d8f8c534300e737b546da69263530496fd9e8409b209179b38c2547b6e4e52ae0300473044022066cd42aa8442d32faef05758fb3847f44bab92f722f91070681ce703620768a902200884bdf082592e2875e9835daadb0f66acdee16b44ca02f0254df3bd1f0e3a180147522102041632b10c7cf1ed3759a1379de01bd2ca7d95e27085ce239937e24cb77e1659210348f2863b49419fbec7bba412f363cb31e01b55cc97c3b6b93b3f14e897f37a6852ae0300473044022029b2f112f024832de87e0b49f3eaeab9d2f9b98529a34791eb06817f96e86841022053d2876ea71c67a06687e8592329b517fe4ca15c8408db3394081c5f0a36a51a01475221020f7f5b79ea6269c2dc4d53339c28989067d1cbf043fea976b93d0e78a1c56ea7210348f2863b49419fbec7bba412f363cb31e01b55cc97c3b6b93b3f14e897f37a6852ae00000000",
    "key": "U2FsdGVkX19SUZ87cQ1WYJW51piUo9eaenUBtkrPMIUUcJ1w2OkcA8W03BPDuM9d8bm9TffTusf6Y+zruKnqLpjiDPuDATHFpDu3E0+65OOhuTkud1kWKHRZNFQi3zXk",
    "salt": "1965208c6c32042b1a0e297d3479a11f"
  },
  "bch": {
    "utxos": [
      {
        "txid": "40a866086e98ebd6869501a3d3a5fc12c68e4d2c2a57f174536d7889fcaf65fc",
        "vout": 0,
        "address": "bitcoincash:pr02nnt4rtauzr0c2787nxj3qlcxhqy57ghjd6pvke",
        "label": "",
        "account": "",
        "redeemScript": "5221027380d8afae283497bca9ecb0641109875ce4f32c30260036a47fe1ab99549aa0210362977a76161987f87bc1f84187fad76197b067732f881c4bbef691d68138215052ae",
        "scriptPubKey": "a914dea9cd751afbc10df8578fe99a5107f06b8094f287",
        "amount": 0.04461368,
        "confirmations": 2,
        "spendable": false,
        "solvable": true,
        "safe": true,
        "public_keys": [
          "027380d8afae283497bca9ecb0641109875ce4f32c30260036a47fe1ab99549aa0",
          "0362977a76161987f87bc1f84187fad76197b067732f881c4bbef691d681382150"
        ]
      }
    ],
    "public_key": "027380d8afae283497bca9ecb0641109875ce4f32c30260036a47fe1ab99549aa0",
    "hex": "0200000001fc65affc89786d5374f1572a2c4d8ec612fca5d3a3019586d6eb986e0866a840000000009200483045022100a0a47a77b68272140f0ad66a61674e816807d233e1b063e382be804784f4c82a022021b5968006a9a304766cdbb12b967319c122831a1cfc7e5feb02745a746439bf41475221027380d8afae283497bca9ecb0641109875ce4f32c30260036a47fe1ab99549aa0210362977a76161987f87bc1f84187fad76197b067732f881c4bbef691d68138215052aeffffffff01390f44000000000017a9142085aeb83083472f9e9cfafed84a7dccb768e2fd8700000000",
    "key": "U2FsdGVkX18zqRpMMEVpJp/RSVNZj4xSeOTUr4Pz01XyRyGfZvjG79oW5zderGakdeuKmtw6rGn/+a2o+1gKduC14qRv5sr46aCOYFD0apHj7syw37TTby3Kq3KB7L8V",
    "salt": "1965208c6c32042b1a0e297d3479a11f"
  }
}
