{
  "dash": {
    "utxos": [
      {
        "txid": "c05bac38dd30db57a18f0ac9cd58b35f47eda9fb6d96be3825d94a132b3c5c4c",
        "vout": 0,
        "address": "7TRutGWsKXKPb4CBoz6MB5S6pcVFigeCUL",
        "account": "",
        "redeemScript": "522102f0e3cd8d190b195d0a2214816d0415d88bbbb14b94f925b723c448027889b2592103b796454b6ea7b7daa923281ea69f5d6cf3b214443c4c064a3b39663371dbb3de52ae",
        "scriptPubKey": "a9140b352be6d66c7dc4762b5694316b585eb3a6536c87",
        "amount": 0.0001,
        "confirmations": 4343,
        "spendable": false,
        "solvable": true,
        "safe": true,
        "ps_rounds": -3,
        "public_keys": [
          "03b796454b6ea7b7daa923281ea69f5d6cf3b214443c4c064a3b39663371dbb3de",
          "02f0e3cd8d190b195d0a2214816d0415d88bbbb14b94f925b723c448027889b259"
        ]
      },
      {
        "txid": "9ceda6822324762cc9c5c37eefd8bac26f13719249aa69e6b07650b042543b4e",
        "vout": 0,
        "address": "7TRutGWsKXKPb4CBoz6MB5S6pcVFigeCUL",
        "account": "",
        "redeemScript": "522102f0e3cd8d190b195d0a2214816d0415d88bbbb14b94f925b723c448027889b2592103b796454b6ea7b7daa923281ea69f5d6cf3b214443c4c064a3b39663371dbb3de52ae",
        "scriptPubKey": "a9140b352be6d66c7dc4762b5694316b585eb3a6536c87",
        "amount": 0.001,
        "confirmations": 702,
        "spendable": false,
        "solvable": true,
        "safe": true,
        "ps_rounds": -2,
        "public_keys": [
          "03b796454b6ea7b7daa923281ea69f5d6cf3b214443c4c064a3b39663371dbb3de",
          "02f0e3cd8d190b195d0a2214816d0415d88bbbb14b94f925b723c448027889b259"
        ]
      },
      {
        "txid": "ebc8d678da840c88d9b625652fcdf4ae7a981c228d657529cc24e50b4703f656",
        "vout": 0,
        "address": "7TRutGWsKXKPb4CBoz6MB5S6pcVFigeCUL",
        "account": "",
        "redeemScript": "522102f0e3cd8d190b195d0a2214816d0415d88bbbb14b94f925b723c448027889b2592103b796454b6ea7b7daa923281ea69f5d6cf3b214443c4c064a3b39663371dbb3de52ae",
        "scriptPubKey": "a9140b352be6d66c7dc4762b5694316b585eb3a6536c87",
        "amount": 0.001,
        "confirmations": 4323,
        "spendable": false,
        "solvable": true,
        "safe": true,
        "ps_rounds": -2,
        "public_keys": [
          "03b796454b6ea7b7daa923281ea69f5d6cf3b214443c4c064a3b39663371dbb3de",
          "02f0e3cd8d190b195d0a2214816d0415d88bbbb14b94f925b723c448027889b259"
        ]
      },
      {
        "txid": "ebc8d678da840c88d9b625652fcdf4ae7a981c228d657529cc24e50b4703f656",
        "vout": 1,
        "address": "7TRutGWsKXKPb4CBoz6MB5S6pcVFigeCUL",
        "account": "",
        "redeemScript": "522102f0e3cd8d190b195d0a2214816d0415d88bbbb14b94f925b723c448027889b2592103b796454b6ea7b7daa923281ea69f5d6cf3b214443c4c064a3b39663371dbb3de52ae",
        "scriptPubKey": "a9140b352be6d66c7dc4762b5694316b585eb3a6536c87",
        "amount": 0.002,
        "confirmations": 4323,
        "spendable": false,
        "solvable": true,
        "safe": true,
        "ps_rounds": -2,
        "public_keys": [
          "03b796454b6ea7b7daa923281ea69f5d6cf3b214443c4c064a3b39663371dbb3de",
          "02f0e3cd8d190b195d0a2214816d0415d88bbbb14b94f925b723c448027889b259"
        ]
      },
      {
        "txid": "7c898249f48803a7b0782f4de27e91564edc5fe7e313e02535983b6b530fff6f",
        "vout": 0,
        "address": "7TRutGWsKXKPb4CBoz6MB5S6pcVFigeCUL",
        "account": "",
        "redeemScript": "522102f0e3cd8d190b195d0a2214816d0415d88bbbb14b94f925b723c448027889b2592103b796454b6ea7b7daa923281ea69f5d6cf3b214443c4c064a3b39663371dbb3de52ae",
        "scriptPubKey": "a9140b352be6d66c7dc4762b5694316b585eb3a6536c87",
        "amount": 0.00983809,
        "confirmations": 4320,
        "spendable": false,
        "solvable": true,
        "safe": true,
        "ps_rounds": -2,
        "public_keys": [
          "03b796454b6ea7b7daa923281ea69f5d6cf3b214443c4c064a3b39663371dbb3de",
          "02f0e3cd8d190b195d0a2214816d0415d88bbbb14b94f925b723c448027889b259"
        ]
      },
      {
        "txid": "3ca7fda3cb4d77d998aea6e5b07e7f1b2f0b38df1ed1691f50dc74f68d950c78",
        "vout": 0,
        "address": "7TRutGWsKXKPb4CBoz6MB5S6pcVFigeCUL",
        "account": "",
        "redeemScript": "522102f0e3cd8d190b195d0a2214816d0415d88bbbb14b94f925b723c448027889b2592103b796454b6ea7b7daa923281ea69f5d6cf3b214443c4c064a3b39663371dbb3de52ae",
        "scriptPubKey": "a9140b352be6d66c7dc4762b5694316b585eb3a6536c87",
        "amount": 0.0001,
        "confirmations": 4339,
        "spendable": false,
        "solvable": true,
        "safe": true,
        "ps_rounds": -3,
        "public_keys": [
          "03b796454b6ea7b7daa923281ea69f5d6cf3b214443c4c064a3b39663371dbb3de",
          "02f0e3cd8d190b195d0a2214816d0415d88bbbb14b94f925b723c448027889b259"
        ]
      },
      {
        "txid": "b908497fe2ebdacddebb0b392c66cb4cdb976aeabc5f79ee1196f01c15eeed8d",
        "vout": 0,
        "address": "7TRutGWsKXKPb4CBoz6MB5S6pcVFigeCUL",
        "account": "",
        "redeemScript": "522102f0e3cd8d190b195d0a2214816d0415d88bbbb14b94f925b723c448027889b2592103b796454b6ea7b7daa923281ea69f5d6cf3b214443c4c064a3b39663371dbb3de52ae",
        "scriptPubKey": "a9140b352be6d66c7dc4762b5694316b585eb3a6536c87",
        "amount": 0.0001,
        "confirmations": 4337,
        "spendable": false,
        "solvable": true,
        "safe": true,
        "ps_rounds": -3,
        "public_keys": [
          "03b796454b6ea7b7daa923281ea69f5d6cf3b214443c4c064a3b39663371dbb3de",
          "02f0e3cd8d190b195d0a2214816d0415d88bbbb14b94f925b723c448027889b259"
        ]
      },
      {
        "txid": "9f74c85a849a374a5645df0d6e21138638b703ba8cdd90477911713f31d80b32",
        "vout": 1,
        "address": "7Tz8bTX4RXJXznrZRisSpbgfygZSiKwcLR",
        "account": "",
        "redeemScript": "522103b796454b6ea7b7daa923281ea69f5d6cf3b214443c4c064a3b39663371dbb3de2103df9f37fc2295de54d6714dd42c49e4b15055a4d25687d78162267acea891aed152ae",
        "scriptPubKey": "a914114d179939b4997b1d8c99fbb927103774c7a08387",
        "amount": 0.00397954,
        "confirmations": 5930,
        "spendable": false,
        "solvable": true,
        "safe": true,
        "ps_rounds": -2,
        "public_keys": [
          "03b796454b6ea7b7daa923281ea69f5d6cf3b214443c4c064a3b39663371dbb3de",
          "03df9f37fc2295de54d6714dd42c49e4b15055a4d25687d78162267acea891aed1"
        ]
      },
      {
        "txid": "9ceda6822324762cc9c5c37eefd8bac26f13719249aa69e6b07650b042543b4e",
        "vout": 1,
        "address": "7Tz8bTX4RXJXznrZRisSpbgfygZSiKwcLR",
        "account": "",
        "redeemScript": "522103b796454b6ea7b7daa923281ea69f5d6cf3b214443c4c064a3b39663371dbb3de2103df9f37fc2295de54d6714dd42c49e4b15055a4d25687d78162267acea891aed152ae",
        "scriptPubKey": "a914114d179939b4997b1d8c99fbb927103774c7a08387",
        "amount": 7.689e-05,
        "confirmations": 705,
        "spendable": false,
        "solvable": true,
        "safe": true,
        "ps_rounds": -2,
        "public_keys": [
          "03b796454b6ea7b7daa923281ea69f5d6cf3b214443c4c064a3b39663371dbb3de",
          "03df9f37fc2295de54d6714dd42c49e4b15055a4d25687d78162267acea891aed1"
        ]
      },
      {
        "txid": "b908497fe2ebdacddebb0b392c66cb4cdb976aeabc5f79ee1196f01c15eeed8d",
        "vout": 1,
        "address": "7Tz8bTX4RXJXznrZRisSpbgfygZSiKwcLR",
        "account": "",
        "redeemScript": "522103b796454b6ea7b7daa923281ea69f5d6cf3b214443c4c064a3b39663371dbb3de2103df9f37fc2295de54d6714dd42c49e4b15055a4d25687d78162267acea891aed152ae",
        "scriptPubKey": "a914114d179939b4997b1d8c99fbb927103774c7a08387",
        "amount": 0.00066295,
        "confirmations": 4340,
        "spendable": false,
        "solvable": true,
        "safe": true,
        "ps_rounds": -2,
        "public_keys": [
          "03b796454b6ea7b7daa923281ea69f5d6cf3b214443c4c064a3b39663371dbb3de",
          "03df9f37fc2295de54d6714dd42c49e4b15055a4d25687d78162267acea891aed1"
        ]
      }
    ],
    "public_key": "03b796454b6ea7b7daa923281ea69f5d6cf3b214443c4c064a3b39663371dbb3de",
    "hex": "020000000a4c5c3c2b134ad92538be966dfba9ed475fb358cdc90a8fa157db30dd38ac5bc0000000009100473044022076301895f5c250dc049c349917121665795a1f75fd9138d142b5208357d543f502204d0564d97ef20bec382ed9b504d22b95fbf896a01b053dee3d34b59b9c9740d60147522102f0e3cd8d190b195d0a2214816d0415d88bbbb14b94f925b723c448027889b2592103b796454b6ea7b7daa923281ea69f5d6cf3b214443c4c064a3b39663371dbb3de52aeffffffff4e3b5442b05076b0e669aa499271136fc2bad8ef7ec3c5c92c76242382a6ed9c000000009200483045022100c72f6604c70e44456f08eaa5e1127590a658e19355000e928374c5ad00dd204b02200d57d3a834161e50df42cec370e7f67ef2745bf91f877d6c61fd2a0a56476b920147522102f0e3cd8d190b195d0a2214816d0415d88bbbb14b94f925b723c448027889b2592103b796454b6ea7b7daa923281ea69f5d6cf3b214443c4c064a3b39663371dbb3de52aeffffffff56f603470be524cc2975658d221c987aaef4cd2f6525b6d9880c84da78d6c8eb0000000091004730440220399a4790430bef14041286768c8e473b858e5d92e5d242726ef4477389928cc402206cd62541fd335678657a26c08e959b10c1562aed38d158036169022ed2c12fd30147522102f0e3cd8d190b195d0a2214816d0415d88bbbb14b94f925b723c448027889b2592103b796454b6ea7b7daa923281ea69f5d6cf3b214443c4c064a3b39663371dbb3de52aeffffffff56f603470be524cc2975658d221c987aaef4cd2f6525b6d9880c84da78d6c8eb01000000910047304402203f4490ee91111ba50e74779d222bf0279627f1f13af18d0ed7f7c54d0845ac5402200693308d91ea629caedaba043162e652a3103c5f20193b792c1106003d65f3460147522102f0e3cd8d190b195d0a2214816d0415d88bbbb14b94f925b723c448027889b2592103b796454b6ea7b7daa923281ea69f5d6cf3b214443c4c064a3b39663371dbb3de52aeffffffff6fff0f536b3b983525e013e3e75fdc4e56917ee24d2f78b0a70388f44982897c000000009200483045022100ec5a587d6f147dc9dbd6d642dda1309b57f5a9a75428122ba0fb3ec25a3a15dc022021348c44f5a4ebf73f9506226ddb59ae4e7407cafa58b9115461e0424b7e35db0147522102f0e3cd8d190b195d0a2214816d0415d88bbbb14b94f925b723c448027889b2592103b796454b6ea7b7daa923281ea69f5d6cf3b214443c4c064a3b39663371dbb3de52aeffffffff780c958df674dc501f69d11edf380b2f1b7f7eb0e5a6ae98d9774dcba3fda73c000000009100473044022031c88644ee676627f8707968095c9e7cd73c6862c465a70a4c519a3155bdf2e502204b6b87a3a879861de4417af549cfcaf2ee3ce2d498851bc6119a4eee80e483d50147522102f0e3cd8d190b195d0a2214816d0415d88bbbb14b94f925b723c448027889b2592103b796454b6ea7b7daa923281ea69f5d6cf3b214443c4c064a3b39663371dbb3de52aeffffffff8dedee151cf09611ee795fbcea6a97db4ccb662c390bbbdecddaebe27f4908b9000000009200483045022100dbd914577b55769827b215f9751f03ac7aeb44ab321ded2fa80e35cfe8650fac02200f6d27417d2ecbae5b6d34796274946524f57c368f6f74429d8e3182a6249a830147522102f0e3cd8d190b195d0a2214816d0415d88bbbb14b94f925b723c448027889b2592103b796454b6ea7b7daa923281ea69f5d6cf3b214443c4c064a3b39663371dbb3de52aeffffffff320bd8313f7111794790dd8cba03b7388613216e0ddf45564a379a845ac8749f0100000092004830450221008398aac1e30d0edbd14dc667f83d355665d5f03919f6c768dd49d267748a2f8502203dbd0ff64e881015f0b95e723d874c88a06f39eb8f9a8c5c2c7dc19f4ea133b70147522103b796454b6ea7b7daa923281ea69f5d6cf3b214443c4c064a3b39663371dbb3de2103df9f37fc2295de54d6714dd42c49e4b15055a4d25687d78162267acea891aed152aeffffffff4e3b5442b05076b0e669aa499271136fc2bad8ef7ec3c5c92c76242382a6ed9c01000000910047304402203a2ec4d2d76c38eb6b6e74498ff4500393185a11754c0caa6c3306e001d3401d02203f1b9ba645805524b09378db2258dc30331e3a65d182db0d4dc37628351aa0cc0147522103b796454b6ea7b7daa923281ea69f5d6cf3b214443c4c064a3b39663371dbb3de2103df9f37fc2295de54d6714dd42c49e4b15055a4d25687d78162267acea891aed152aeffffffff8dedee151cf09611ee795fbcea6a97db4ccb662c390bbbdecddaebe27f4908b901000000920048304502210098aa5e4985563e24defc7023bbde2f76d5760b40df7450f7a45df03f763735070220717ced6a7f61af43e642c6ca1d1af0129fa7afae9042f73cb17d38adac1679000147522103b796454b6ea7b7daa923281ea69f5d6cf3b214443c4c064a3b39663371dbb3de2103df9f37fc2295de54d6714dd42c49e4b15055a4d25687d78162267acea891aed152aeffffffff019bb11c000000000017a9140b352be6d66c7dc4762b5694316b585eb3a6536c8700000000",
    "key": "U2FsdGVkX19CvCLlm2RibId2ewK3TBT8fnrBFQ51Vt0L1YRjVzt03uc3hJWMs+1hfGVl7VMdZK53uEm9fYbQ/La3xfeTFkM3WjNmFD5KLETV6S0amcZpcit8k3pMXv17",
    "salt": "1965208c6c32042b1a0e297d3479a11f"
  }
}