{
  "dash": {
    "utxos": [
      {
        "txid": "2d26ef62b071124f9c9c887e949be639e88422ca9a49ea8c50a004d7af9e2f27",
        "vout": 0,
        "address": "7TRutGWsKXKPb4CBoz6MB5S6pcVFigeCUL",
        "account": "",
        "redeemScript": "522102f0e3cd8d190b195d0a2214816d0415d88bbbb14b94f925b723c448027889b2592103b796454b6ea7b7daa923281ea69f5d6cf3b214443c4c064a3b39663371dbb3de52ae",
        "scriptPubKey": "a9140b352be6d66c7dc4762b5694316b585eb3a6536c87",
        "amount": 0.01880475,
        "confirmations": 11,
        "spendable": false,
        "solvable": true,
        "safe": true,
        "ps_rounds": -2,
        "public_keys": [
          "03b796454b6ea7b7daa923281ea69f5d6cf3b214443c4c064a3b39663371dbb3de",
          "02f0e3cd8d190b195d0a2214816d0415d88bbbb14b94f925b723c448027889b259"
        ]
      }
    ],
    "public_key": "03b796454b6ea7b7daa923281ea69f5d6cf3b214443c4c064a3b39663371dbb3de",
    "hex": "0200000001272f9eafd704a0508cea499aca2284e839e69b947e889c9c4f1271b062ef262d00000000910047304402203a5b69026ba230a804b01e439e08235afac31a3108b2c1c0e31b714603b3524102205bd941e75694194e39c2c62eda008b7913975d4cc6753d68e1c39567138daa710147522102f0e3cd8d190b195d0a2214816d0415d88bbbb14b94f925b723c448027889b2592103b796454b6ea7b7daa923281ea69f5d6cf3b214443c4c064a3b39663371dbb3de52aeffffffff01f1ae1c000000000017a9140b352be6d66c7dc4762b5694316b585eb3a6536c8700000000",
    "key": "U2FsdGVkX19CvCLlm2RibId2ewK3TBT8fnrBFQ51Vt0L1YRjVzt03uc3hJWMs+1hfGVl7VMdZK53uEm9fYbQ/La3xfeTFkM3WjNmFD5KLETV6S0amcZpcit8k3pMXv17",
    "salt": "1965208c6c32042b1a0e297d3479a11f"
  },
  "btc": {
    "utxos": [
      {
        "txid": "c25ce048981ed8220b533ce35470526d3c3896b488d8b2b635df18c449a161fe",
        "vout": 0,
        "address": "31vq2dpuz1MBeLhtjs86a3a9YCbjxi9ao3",
        "account": "",
        "redeemScript": "002045d4bdec369fe377b5e501e45ad4f5f2fb7cd42eb10c297aaf9fd01f22fa6d16",
        "scriptPubKey": "a914029cba9303eb1475342194c82dde7fd323e5f31887",
        "amount": 0.001,
        "confirmations": 896,
        "spendable": false,
        "solvable": true,
        "safe": true,
        "private_key": "Kys8X9QLid2Xq5GKZ7oYyoFz3Jk3hDE3GR9K5AwpUPS2ptCtiBch",
        "public_keys": [
          "0348f2863b49419fbec7bba412f363cb31e01b55cc97c3b6b93b3f14e897f37a68",
          "03e812d8f8c534300e737b546da69263530496fd9e8409b209179b38c2547b6e4e"
        ]
      },
      {
        "txid": "b089c5060df2a509980d4903ff3093ddcb38b0e099cd4b775cd2777ff7251289",
        "vout": 0,
        "address": "3FqgJefEyifvMbaVgbm3Gk6py1QkxexFEM",
        "account": "",
        "redeemScript": "002040b8178fa72cbf7e3f65ede799d06cf2507b7298adc2031e93d49f6d00e8caf3",
        "scriptPubKey": "a9149b3520ac8c63213797d609267b5a51049d25545287",
        "amount": 0.0001,
        "confirmations": 237,
        "spendable": false,
        "solvable": true,
        "safe": true,
        "private_key": "L4TMGYUZoEguNVK22urawUSugVnuMHtA7uPb8nihrQcktSmJfStT",
        "public_keys": [
          "0348f2863b49419fbec7bba412f363cb31e01b55cc97c3b6b93b3f14e897f37a68",
          "02041632b10c7cf1ed3759a1379de01bd2ca7d95e27085ce239937e24cb77e1659"
        ]
      },
      {
        "txid": "b089c5060df2a509980d4903ff3093ddcb38b0e099cd4b775cd2777ff7251289",
        "vout": 1,
        "address": "3PDBrgPZQ9jTR2DbC6Sxxmctsf5DvssBbR",
        "account": "",
        "redeemScript": "00205c63579b28f39de33e1149c344115336f05ec513e98f8a5f9c6108a60abcee51",
        "scriptPubKey": "a914ec0f698b62ac727b0d8db88cceef71e4b650a08c87",
        "amount": 0.00048236,
        "confirmations": 237,
        "spendable": false,
        "solvable": true,
        "safe": true,
        "private_key": "KxdAGEQKjFPTVTstWeH56A7LryrwWtJ5hYgNFcuTLBwCSQcb7z37",
        "public_keys": [
          "0348f2863b49419fbec7bba412f363cb31e01b55cc97c3b6b93b3f14e897f37a68",
          "020f7f5b79ea6269c2dc4d53339c28989067d1cbf043fea976b93d0e78a1c56ea7"
        ]
      }
    ],
    "public_key": "0348f2863b49419fbec7bba412f363cb31e01b55cc97c3b6b93b3f14e897f37a68",
    "hex": "02000000000103fe61a149c418df35b6b2d888b496383c6d527054e33c530b22d81e9848e05cc20000000000ffffffff891225f77f77d25c774bcd99e0b038cbdd9330ff03490d9809a5f20d06c589b00000000000ffffffff891225f77f77d25c774bcd99e0b038cbdd9330ff03490d9809a5f20d06c589b00100000000ffffffff01d75202000000000017a9149b3520ac8c63213797d609267b5a51049d25545287030047304402207e4a7c0deab229e9b97e8a6037a9905232221c8781330bcdca33933d0853c972022043d1a47e9a3205c7ff220f5258cc11c2246e04ef6814f28419d925302a6995fe014752210348f2863b49419fbec7bba412f363cb31e01b55cc97c3b6b93b3f14e897f37a682103e812d8f8c534300e737b546da69263530496fd9e8409b209179b38c2547b6e4e52ae03004730440220744a0e901bdea18c58a6abf67239be89fd43c6d60066d390833dcde5becb9024022046dc79e71f5bfd3eb4aa4301bfc6ad5e4bd1d45632555f64a1c2f80a4494ead20147522102041632b10c7cf1ed3759a1379de01bd2ca7d95e27085ce239937e24cb77e1659210348f2863b49419fbec7bba412f363cb31e01b55cc97c3b6b93b3f14e897f37a6852ae0300473044022013971732f1c6a5e086a80221fc41cbfe6bf2552debe42d2371b8724dc8ab021102202b72ca40c0fb6bb16bfbe72b80342cbab97ec164daa8b7c1023bcd8d4b3c96fe01475221020f7f5b79ea6269c2dc4d53339c28989067d1cbf043fea976b93d0e78a1c56ea7210348f2863b49419fbec7bba412f363cb31e01b55cc97c3b6b93b3f14e897f37a6852ae00000000",
    "key": "U2FsdGVkX19SUZ87cQ1WYJW51piUo9eaenUBtkrPMIUUcJ1w2OkcA8W03BPDuM9d8bm9TffTusf6Y+zruKnqLpjiDPuDATHFpDu3E0+65OOhuTkud1kWKHRZNFQi3zXk",
    "salt": "1965208c6c32042b1a0e297d3479a11f"
  }
}
